:020000040800F2
:1000000000000320ED540008E9370008F737000826
:10001000FF370008073800080F380008000000000C
:100020000000000000000000000000001738000879
:100030002538000800000000333800084138000867
:100040004155000841550008415500084D38000849
:1000500041550008415500080339000811390008CE
:100060004155000841550008F53800084155000881
:10007000415500084155000859380008415500080D
:1000800041550008415500084155000841550008F8
:1000900041550008415500084155000841550008E8
:1000A000415500086D3800088138000841550008A6
:1000B00041550008415500084155000841550008C8
:1000C00041550008415500084155000841550008B8
:1000D00095380008A9380008415500084155000826
:1000E0004155000841550008415500084155000898
:1000F000BD380008C9380008D53800084155000847
:100100004155000841550008415500084155000877
:100110004155000841550008415500084155000867
:100120004155000841550008E138000841550008D4
:0C013000415500084155000841550008E9
:1001400010B5054C237833B9044B13B10448AFF311
:1001500000800123237010BD4C020020000000002D
:10016000B818010808B5034B1BB103490348AFF3A6
:10017000008008BD0000000050020020B8180108EF
:1001800010F8012B11F8013B012A28BF9A42F7D041
:10019000D01A7047000000000000000000000000BE
:1001A00001F0FF01102A2BDB10F0070F08D010F828
:1001B000013B013A8B422DD010F0070F42B3F6D12C
:1001C000F0B441EA012141EA014122F007047FF045
:1001D00000070023F0E80256083C85EA010586EA9C
:1001E000010685FA47F5A3FA87F586FA47F6A5FAD8
:1001F00087F68EB9EED1F0BC01F0FF0102F00702E4
:1002000032B110F8013B013A83EA010313B1F8D18E
:100210000020704701387047002D06BF354603386F
:10022000073815F0010F07D1013015F4807F02BFA8
:10023000013015F4C03F0130F0BC0138704700BFF9
:10024000034613F8012B002AFBD1181A0138704716
:1002500081F0004102E000BF83F0004330B54FEA77
:1002600041044FEA430594EA050F08BF90EA020FE4
:100270001FBF54EA000C55EA020C7FEA645C7FEA77
:10028000655C00F0E2804FEA5454D4EB5555B8BF9A
:100290006D420CDD2C4480EA020281EA030382EA0B
:1002A000000083EA010180EA020281EA0303362D9D
:1002B00088BF30BD11F0004F4FEA01314FF4801C70
:1002C0004CEA113102D0404261EB410113F0004F82
:1002D0004FEA03334CEA133302D0524263EB430339
:1002E00094EA050F00F0A780A4F10104D5F1200ED7
:1002F0000DDB02FA0EFC22FA05F2801841F1000132
:1003000003FA0EF2801843FA05F359410EE0A5F105
:1003100020050EF1200E012A03FA0EFC28BF4CF036
:10032000020C43FA05F3C01851EBE37101F00045EC
:1003300007D54FF0000EDCF1000C7EEB00006EEBF9
:100340000101B1F5801F1BD3B1F5001F0CD3490883
:100350005FEA30004FEA3C0C04F101044FEA4452DA
:1003600012F5800F80F09A80BCF1004F08BF5FEA61
:10037000500C50F1000041EB045141EA050130BD41
:100380005FEA4C0C404141EB0101013C28BFB1F553
:10039000801FE9D291F0000F04BF01460020B1FA9E
:1003A00081F308BF2033A3F10B03B3F120020CDA71
:1003B0000C3208DD02F1140CC2F10C0201FA0CF04F
:1003C00021FA02F10CE002F11402D8BFC2F1200CB4
:1003D00001FA02F120FA0CFCDCBF41EA0C0190406A
:1003E000E41AA2BF01EB0451294330BD6FEA0404B3
:1003F0001F3C1CDA0C340EDC04F11404C4F120029E
:1004000020FA04F001FA02F340EA030021FA04F3AF
:1004100045EA030130BDC4F10C04C4F1200220FA06
:1004200002F001FA04F340EA0300294630BD21FA44
:1004300004F0294630BD94F0000F83F4801306BF0A
:1004400081F480110134013D4EE77FEA645C18BFFE
:100450007FEA655C29D094EA050F08BF90EA020F95
:1004600005D054EA000C04BF1946104630BD91EA8D
:10047000030F1EBF0021002030BD5FEA545C05D190
:100480004000494128BF41F0004130BD14F58004CF
:100490003CBF01F5801130BD01F0004545F0FE4143
:1004A00041F470014FF0000030BD7FEA645C1ABF78
:1004B000194610467FEA655C1CBF0B46024650EAAF
:1004C000013406BF52EA033591EA030F41F40021DB
:1004D00030BD00BF90F0000F04BF0021704730B561
:1004E0004FF4806404F132044FF000054FF0000136
:1004F00050E700BF90F0000F04BF0021704730B5F7
:100500004FF4806404F1320410F0004548BF4042CB
:100510004FF000013EE700BF42004FEAE2014FEA20
:1005200031014FEA02701FBF12F07F4393F07F4FFB
:1005300081F06051704732F07F4208BF704793F0FE
:100540007F4F04BF41F40021704730B54FF4607411
:1005500001F0004521F000411CE700BF50EA010214
:1005600008BF704730B54FF000050AE050EA0102BD
:1005700008BF704730B511F0004502D5404261EB2D
:1005800041014FF4806404F132045FEA915C3FF46E
:10059000D8AE4FF003025FEADC0C18BF03325FEA0B
:1005A000DC0C18BF033202EBDC02C2F1200300FABC
:1005B00003FC20FA02F001FA03FE40EA0E0021FAE1
:1005C00002F11444BDE600BF70B54FF0FF0C4CF4CF
:1005D000E06C1CEA11541DBF1CEA135594EA0C0F81
:1005E00095EA0C0F00F0DEF82C4481EA030621EABC
:1005F0004C5123EA4C5350EA013518BF52EA0335F7
:1006000041F4801143F4801338D0A0FB02CE4FF0A8
:100610000005E1FB02E506F00042E0FB03E54FF0D8
:100620000006E1FB03569CF0000F18BF4EF0010ED0
:10063000A4F1FF04B6F5007F64F5407404D25FEACC
:100640004E0E6D4146EB060642EAC62141EA55517F
:100650004FEAC52040EA5E504FEACE2EB4F1FD0CC1
:1006600088BFBCF5E06F1ED8BEF1004F08BF5FEA3F
:10067000500E50F1000041EB045170BD06F00046F1
:1006800046EA010140EA020081EA0301B4EB5C049E
:10069000C2BFD4EB0C0541EA045170BD41F4801196
:1006A0004FF0000E013C00F3AB8014F1360FDEBFBB
:1006B000002001F0004170BDC4F10004203C35DA97
:1006C0000C341BDC04F11404C4F1200500FA05F31A
:1006D00020FA04F001FA05F240EA020001F00042BB
:1006E00021F0004110EBD37021FA04F642EB060131
:1006F0005EEA430E08BF20EAD37070BDC4F10C045B
:10070000C4F1200500FA04F320FA05F001FA04F21E
:1007100040EA020001F0004110EBD37041F100010A
:100720005EEA430E08BF20EAD37070BDC4F1200515
:1007300000FA05F24EEA020E20FA04F301FA05F27D
:1007400043EA020321FA04F001F0004121FA04F225
:1007500020EA020000EBD3705EEA430E08BF20EAF5
:10076000D37070BD94F0000F0FD101F0004640002F
:1007700041EB010111F4801F08BF013CF7D041EAB1
:10078000060195F0000F18BF704703F000465200B5
:1007900043EB030313F4801F08BF013DF7D043EA86
:1007A0000603704794EA0C0F0CEA135518BF95EA3C
:1007B0000C0F0CD050EA410618BF52EA4306D1D1C3
:1007C00081EA030101F000414FF0000070BD50EAE2
:1007D000410606BF1046194652EA430619D094EA6C
:1007E0000C0F02D150EA013613D195EA0C0F05D156
:1007F00052EA03361CBF104619460AD181EA0301AA
:1008000001F0004141F0FE4141F470014FF0000061
:1008100070BD41F0FE4141F4780170BD70B54FF0FC
:10082000FF0C4CF4E06C1CEA11541DBF1CEA13557C
:1008300094EA0C0F95EA0C0F00F0A7F8A4EB05045E
:1008400081EA030E52EA03354FEA013100F0888055
:100850004FEA03334FF0805545EA131343EA12631E
:100860004FEA022245EA111545EA10654FEA0026D3
:100870000EF000419D4208BF964244F1FD0404F58C
:10088000407402D25B084FEA3202B61A65EB0305E8
:100890005B084FEA32024FF480104FF4002CB6EBA5
:1008A000020E75EB030E22BFB61A754640EA0C0025
:1008B0005B084FEA3202B6EB020E75EB030E22BF65
:1008C000B61A754640EA5C005B084FEA3202B6EBA6
:1008D000020E75EB030E22BFB61A754640EA9C0065
:1008E0005B084FEA3202B6EB020E75EB030E22BF35
:1008F000B61A754640EADC0055EA060E18D04FEAF3
:10090000051545EA16754FEA06164FEAC30343EA92
:1009100052734FEAC2025FEA1C1CC0D111F4801F5F
:100920000BD141EA00014FF000004FF0004CB6E758
:1009300011F4801F04BF01430020B4F1FD0C88BFF7
:10094000BCF5E06F3FF6AFAEB5EB030C04BFB6EB02
:10095000020C5FEA500C50F1000041EB045170BDF5
:100960000EF0004E4EEA113114EB5C04C2BFD4EB22
:100970000C0541EA045170BD41F480114FF0000EA6
:10098000013C90E645EA060E8DE60CEA135594EA22
:100990000C0F08BF95EA0C0F3FF43BAF94EA0C0F25
:1009A0000AD150EA01347FF434AF95EA0C0F7FF49A
:1009B00025AF104619462CE795EA0C0F06D152EAEE
:1009C00003353FF4FDAE1046194622E750EA4106D2
:1009D00018BF52EA43067FF4C5AE50EA41047FF4E3
:1009E0000DAF52EA43057FF4EBAE12E74FF0FF3C48
:1009F00006E000BF4FF0010C02E000BF4FF0010C19
:100A00004DF804CD4FEA410C7FEA6C5C4FEA430C91
:100A100018BF7FEA6C5C1BD001B050EA410C0CBFE0
:100A200052EA430C91EA030F02BF90EA020F002042
:100A3000704710F1000F91EA030F58BF994208BFA9
:100A400090422CBFD8176FEAE37040F00100704766
:100A50004FEA410C7FEA6C5C02D150EA013C07D1BD
:100A60004FEA430C7FEA6C5CD6D152EA033CD3D008
:100A70005DF8040B704700BF8446104662468C4602
:100A80001946634600E000BF01B5FFF7B7FF002835
:100A900048BF10F1000F01BD4DF808EDFFF7F4FF5E
:100AA0000CBF012000205DF808FB00BF4DF808EDE9
:100AB000FFF7EAFF34BF012000205DF808FB00BF0C
:100AC0004DF808EDFFF7E0FF94BF012000205DF82E
:100AD00008FB00BF4DF808EDFFF7CEFF94BF0120E3
:100AE00000205DF808FB00BF4DF808EDFFF7C4FFDC
:100AF00034BF012000205DF808FB00BF4FEA410C25
:100B00007FEA6C5C02D150EA013C0AD14FEA430C07
:100B10007FEA6C5C02D152EA033C02D14FF0000044
:100B200070474FF0010070474FEA410212F5001282
:100B300015D211D56FF47873B3EB625212D94FEA24
:100B4000C12343F0004343EA505311F0004F23FA0E
:100B500002F018BF404270474FF00000704750EA63
:100B6000013005D111F0004008BF6FF00040704720
:100B70004FF00000704700BF53B94AB9002908BFC1
:100B800000281CBF4FF0FF314FF0FF3000F088B954
:100B9000ADF1080C6DE904CE00F006F8DDF804E0D4
:100BA000DDE9022304B070472DE9F047089D8E4629
:100BB00004468846002B4AD18A42174662D9B2FAC7
:100BC00082F64EB1C6F1200301FA06F820FA03F3CB
:100BD000B74043EA0808B4404FEA174E1FFA87FCB3
:100BE000B8FBFEF1230C0EFB118843EA084301FB1E
:100BF0000CF29A4209D9FB1801F1FF3080F0EA802B
:100C00009A4240F2E78002393B449A1AA3B2B2FBFF
:100C1000FEF00EFB102243EA024300FB0CFC9C4555
:100C200009D9FB1800F1FF3280F0D6809C4540F2D4
:100C3000D3803B44023840EA0140A3EB0C0300217F
:100C40001DB1F3400022C5E90032BDE8F0878B42B8
:100C500005D90DB1C5E9000100210846F5E7B3FA51
:100C600083F1002946D1734502D3824200F2058107
:100C7000841A6EEB030201209046002DE5D0C5E9F1
:100C80000048E2E7002A00F09080B2FA82F6002ED7
:100C900040F0A4808A1A030C4FEA174E80B2BCB20F
:100CA0000121B2FBFEFC0EFB1C2243EA024304FBC3
:100CB0000CF29A4207D9FB180CF1FF3802D29A4283
:100CC00000F2E080C4469B1AB3FBFEF20EFB123327
:100CD00040EA034302FB04F49C4207D9FB1802F1EB
:100CE000FF3002D29C4200F2CA8002461B1B42EA3D
:100CF0000C40A5E7C1F120068B4022FA06F71F43FE
:100D00000EFA01F420FA06F32EFA06FE4FEA17490E
:100D1000234300FA01F81FFA87FCBEFBF9F01C0C14
:100D200009FB10EE44EA0E4400FB0CFEA64502FA55
:100D300001F209D93C1900F1FF3A80F09C80A645E8
:100D400040F2998002383C44A4EB0E041FFA83FE63
:100D5000B4FBF9F309FB13444EEA044403FB0CFC17
:100D6000A44508D93C1903F1FF3E80F08280A445D8
:100D70007FD9023B3C4443EA0040A4EB0C04A0FBB7
:100D800002EC64457346E14662D35FD05DB1B8EBD7
:100D9000030264EB090404FA06F622FA01F31E4387
:100DA000CC40C5E9006400214FE7B1FBF2FC010C27
:100DB00041EA0E4180B240EA01423B4638463C4699
:100DC000B846BE462026B1FBF7F1A2EB080241EA85
:100DD0000C4166E7014618E710462CE7C6F12002F1
:100DE0002EFA02F3B740B14020FA02F24FEA174E52
:100DF0000A43B3FBFEF8BCB20EFB1833110C41EAF8
:100E0000034108FB04F9B04089454FEA104380B222
:100E10003ED9791808F1FF3C01D289451FD8A1EBD2
:100E20000901B1FBFEF909FB04F80EFB191192B29E
:100E300042EA0142424529D2BA1809F1FF31C4D22F
:100E40004245C2D2A9F102013A44BEE7F0459DD223
:100E5000BEEB02036CEB070C0138E14696E7A7EB0B
:100E600009094944A8F1020CB1FBFEF909FB04F899
:100E7000DBE773467FE7504666E70846FDE63B44FE
:100E8000023A33E7ACF1020C3B441CE749469CE7CD
:100E9000A1EB0901C446B1FBFEF909FB04F8C4E764
:100EA000704700BF80B588B004AF0346FB710723CD
:100EB000FB730A4B1868FB799AB20A230293012349
:100EC000019307F10F0300930123EE2105F0E6FDE6
:100ED000FB7B18461037BD4680BD00BF680200206E
:100EE00080B588B004AF0346FB710E4B1868FB79E0
:100EF0009AB20A2302930223019307F10C03009391
:100F00000123EE2105F0CAFD3B7B1BB21B021AB286
:100F10007B7B1BB213431BB29BB218461037BD46F6
:100F200080BD00BF6802002080B586B004AF0346D4
:100F30000A46FB711346BB71084B1868FB799AB2DD
:100F40000A23029301230193BB1D00930123EE2189
:100F500005F090FC00BF0837BD4680BD6802002048
:100F600080B500AF2E21F420FFF7DEFF00BFF42094
:100F7000FFF798FF034603F02003002BF7D1F6207C
:100F8000FFF7AEFF0346184680BD000080B485B071
:100F900000AF7860104B1B881A467B689B1A0F4A7B
:100FA000128802FB03F3DB13FB600D4BB3F9003037
:100FB000DA020C4BB3F900301946FB680B4492FB84
:100FC000F3F3BB60FA68BB68134418461437BD4698
:100FD0005DF8047B704700BF820200208002002081
:100FE0007A0200207C02002080B582B000AF2D4B39
:100FF0001B789B01DBB23433DBB21946F420FFF7D8
:1010000093FF284B1B78002B09D100BFF420FFF77A
:1010100049FF034603F02003002BF7D124E0214BC6
:101020001B78012B09D100BFF420FFF73BFF0346DB
:1010300003F02003002BF7D116E01A4B1B78022B8C
:1010400009D100BFF420FFF72DFF034603F0200372
:10105000002BF7D108E000BFF420FFF723FF034681
:1010600003F02003002BF7D1F620FFF739FF0346EA
:101070007B607B681B027B60F820FFF713FF034651
:101080001A467B6813437B60064B1B78C3F1080349
:101090007A6822FA03F37B607B6818460837BD46FE
:1010A00080BD00BF6C02002080B582B000AF7860C8
:1010B0000B46FB70314A7B681360FB78032B01D928
:1010C0000323FB702E4AFB78137000BFD020FFF77C
:1010D000E9FE0346552BF9D1AA20FFF701FF03468D
:1010E0001AB2284B1A80AC20FFF7FAFE03461AB258
:1010F000254B1A80AE20FFF7F3FE03461AB2234BAE
:101100001A80B020FFF7ECFE03461A46204B1A80E7
:10111000B220FFF7E5FE03461A461E4B1A80B420A4
:10112000FFF7DEFE03461A461B4B1A80B620FFF778
:10113000D7FE03461AB2194B1A80B820FFF7D0FE2B
:1011400003461AB2164B1A80BA20FFF7C9FE0346AF
:101150001AB2144B1A80BC20FFF7C2FE03461AB223
:10116000114B1A80BE20FFF7BBFE03461AB20F4B8D
:101170001A8000BF0837BD4680BD00BF680200204E
:101180006C0200206E02002070020020720200201B
:101190007E020020800200208202002074020020D3
:1011A00076020020780200207A0200207C020020D3
:1011B00080B584B000AFFFF7D3FE0346FB60F8684C
:1011C000FFF7E4FEB860BB6808331B1107EE903AE6
:1011D000F8EEE77AC7ED017A97ED017AF2EE046A4C
:1011E000C7EE267AC7ED017A7B6807EE903AB0EE3B
:1011F000670A1037BD4680BD80B58CB000AFFFF7E1
:10120000AFFE0346BB62FFF7EFFE7862B86AFFF7F6
:10121000BDFE38623B6AA3F57A63FB61454BB3F9C7
:1012200000301A46FB6903FB03F31B1302FB03F3B5
:10123000DB12BB61404BB3F900301A46FB6902FB7D
:1012400003F3DB127B61BA697B6913443B613B4B5F
:10125000B3F900309A003B691344394A127893403D
:101260000233002B00DA03339B10FB60354BB3F9DC
:1012700000301A46FB6902FB03F35B13BB61324B80
:10128000B3F900301A46FB6903FB03F31B1302FB9F
:1012900003F31B147B61BA697B69134402339B100F
:1012A0003B612A4B1B881A463B6903F5004302FB4E
:1012B00003F3DB0BBB607A6AFB68D31A204A12780F
:1012C00011464CF25032CA4002FB03F37B607B684C
:1012D000002B06DB7B685A00BB68B2FBF3F3FB62B2
:1012E00005E07A68BB68B2FBF3F35B00FB62FB6A64
:1012F0001B12FA6A121202FB03F3BB61BB6940F6D0
:10130000DE3202FB03F31B14BB61FB6A104A02FBD3
:1013100003F31B147B61BA697B69134403F6CF6343
:101320001B11FA6A1344FB62FB6A18463037BD464C
:1013300080BD00BF76020020700200206E020020F7
:101340006C02002072020020740200207E02002045
:1013500043E3FFFF80B483B000AF7860064BD3F85F
:10136000902005497B681343C1F8903000BF0C37CB
:10137000BD465DF8047B70470008005880B485B016
:1013800000AF78604FF0B043DA6C4FF0B0417B684B
:101390001343CB644FF0B043DA6C7B681340FB60BF
:1013A000FB6800BF1437BD465DF8047B704780B40E
:1013B00085B000AF78604FF0B043D3F84C214FF0C8
:1013C000B0417B681343C1F84C314FF0B043D3F8C0
:1013D0004C217B681340FB60FB6800BF1437BD469F
:1013E0005DF8047B704780B500AF04F0A9FA04F003
:1013F000ADFA4FF48030FFF7ADFF0BF047FD00F082
:1014000021F800F0C1F800BF80BD0000B0B588B081
:1014100000AF0B4B3C1D1D460FCD0FC495E80700D8
:1014200003C422800234130C23700DF075F93B1DA8
:1014300018460BF0A4FF00BF2037BD46B0BD00BF6B
:10144000D018010880B588B000AF3B1D00221A609B
:101450005A609A60DA601A610023BB8300237B83A1
:1014600000233B830023FB7736E0FB7F434ADB000E
:1014700013449B79002B2CD0FB7F404A52F8333029
:101480003F4A93421BD03E4A934221D8B3F1904F3A
:1014900003D03C4A934209D01AE0FB7F374ADB0075
:1014A00013449A88BB8B1343BB8312E0FB7F334A00
:1014B000DB0013449A887B8B13437B8309E0FB7F1B
:1014C0002E4ADB0013449A883B8B13433B8300E096
:1014D00000BFFB7F0133FB77FB7F252BC5D90023A2
:1014E000FB600123BB6003233B61BB8B002B14D04B
:1014F000BB8B7B600120FFF741FF0120FFF757FF07
:101500003B1D19464FF0904004F054FFBB8B002266
:1015100019464FF0904005F0BDF87B8B002B12D0A0
:101520007B8B7B600220FFF729FF0220FFF73FFF44
:101530003B1D1946134804F03DFF7B8B00221946E2
:10154000104805F0A7F83B8B002B13D03B8B7B603A
:101550000420FFF713FF0420FFF729FF3B1D194666
:10156000074804F027FF3B8B00221946044805F08A
:1015700091F800BF00BF2037BD4680BD202901087B
:10158000000800480004004880B400AF00BFBD461A
:101590005DF8047B704780B500AF01F097FD00BF98
:1015A00080BD80B584B000AFF8600B467A607B8167
:1015B0007A897B68F968002001F074FB00BF10375E
:1015C000BD4680BD80B483B000AF7860074BD3F8D0
:1015D000803023F0070205497B681343C1F880304F
:1015E00000BF0C37BD465DF8047B7047000400580F
:1015F00080B483B000AF7860064BD3F890200549E3
:101600007B681343C1F8903000BF0C37BD465DF8CE
:10161000047B70470008005880B483B000AF786046
:101620004FF0B0430A4AC3F89C204FF0B043D3F8C0
:101630009C3023F47C527B681B024FF0B041134373
:10164000C1F89C3000BF0C37BD465DF8047B704785
:10165000FECAFECA80B483B000AF78604FF0B043DA
:101660009B6823F400424FF0B0417B6813438B60CA
:1016700000BF0C37BD465DF8047B704780B400AFF7
:101680004FF0B043D3F890304FF0B04243F4803382
:10169000C2F8903000BFBD465DF8047B704780B44F
:1016A00000AF4FF0B043D3F890304FF0B04223F486
:1016B0008033C2F8903000BFBD465DF8047B7047B0
:1016C00080B400AF4FF0B043D3F8943003F08063A0
:1016D000B3F1806F01D1012300E000231846BD461D
:1016E0005DF8047B704780B400AF4FF0B043D3F88F
:1016F000943003F08053B3F1805F01D1012300E007
:1017000000231846BD465DF8047B704780B485B061
:1017100000AF78604FF0B0431A6D4FF0B0417B6876
:1017200013430B654FF0B0431A6D7B681340FB60A9
:10173000FB6800BF1437BD465DF8047B70470000AE
:1017400080B400AF044B1B68C3F30B031846BD46BF
:101750005DF8047B704700BF002004E080B400AF58
:10176000044B1B681B0C9BB21846BD465DF8047BFE
:10177000704700BF002004E080B483B000AF786001
:1017800039607B685A683B681B041A437B685A605F
:1017900000BF0C37BD465DF8047B704780B483B052
:1017A00000AF786039607B685A683B681A437B6891
:1017B0005A6000BF0C37BD465DF8047B704780B4AB
:1017C00083B000AF786039607B685A693B681B045E
:1017D0001A437B685A6100BF0C37BD465DF8047B35
:1017E000704780B483B000AF786039607B685A6915
:1017F0003B681A437B685A6100BF0C37BD465DF8F1
:10180000047B704780B483B000AF786039607B6838
:101810003A689A6000BF0C37BD465DF8047B70479C
:1018200080B483B000AF786039607B683A689A61B1
:1018300000BF0C37BD465DF8047B704780B400AF35
:10184000054B1B69044A23F00403136100BFBD4626
:101850005DF8047B704700BF00ED00E080B483B00A
:1018600000AF78607B68FF225A6200BF0C37BD462C
:101870005DF8047B704780B483B000AF78607B680C
:10188000CA225A627B6853225A6200BF0C37BD4697
:101890005DF8047B704780B483B000AF7860396036
:1018A0007B689B6823F007023B681A437B689A6059
:1018B00000BF0C37BD465DF8047B704780B500AFB4
:1018C000044B4FF400421A6100F030F800F070F859
:1018D00000BF80BD0040005880B500AF00F07CF82C
:1018E00000F094F80949002000F04CFFFFF77BFD61
:1018F000012101200CF0B6FF00F0EAF900F0F8F940
:1019000000F07AFA00F090F800BF80BDB806002021
:1019100080B400AF00BFBD465DF8047B704780B562
:1019200000AF5020FFF764FE00BF80BD80B500AF60
:1019300000F004F800F01AF800BF80BD80B500AFD9
:10194000FFF7BEFE0346002B0DD0FFF7CCFE03468B
:10195000002B08D105F09CFD05F09AFDFFF78EFEE7
:10196000FFF79DFE00BF00BF80BD000080B500AF47
:101970004FF48010FFF7CAFE3F210C48FFF742FFEB
:101980003F210A48FFF74CFF3F210848FFF7F4FECC
:101990003F210648FFF713FF3F210448FFF7FEFEF3
:1019A0003F210248FFF71DFF00BF80BD000C00581B
:1019B00080B582B000AF00200BF0A2FC78607B689D
:1019C000002B05D07B689B791846FFF725FE00BFEA
:1019D00000BF0837BD4680BD80B500AFFFF798FF58
:1019E000FFF79DFF00F002F800BF80BD80B500AF9B
:1019F0000548FFF740FF00210348FFF74CFF02486E
:101A0000FFF72CFF00BF80BD0028004080B500AF6D
:101A10004FF40040FFF71EFE0CF012FF0420FFF70A
:101A2000D1FD00BF80BD000080B588B000AF0CF0D4
:101A3000B9FC114A00214FF400700DF0C5F80F4BAE
:101A40003B600F4B7B603B4619460E480BF072FD26
:101A50000D4BBB600D4BFB600D4B3B6140F23C53AB
:101A60007B6107F1080318460CF0E2FD0CF094FCD2
:101A700000BF2037BD4680BD6DD500083407032068
:101A8000951A0008AD1A00084C09032040080320ED
:101A9000F801032080B483B000AF0346FB7100BFA0
:101AA0000C37BD465DF8047B7047000080B588B0F8
:101AB00000AF78607B685B680B33FB61FB691B8858
:101AC0009BB2A3F51243072B60D801A252F823F072
:101AD000F11A0008331B0008411B00088D1B000889
:101AE0005D1B00086D1B0008751B0008851B0008A6
:101AF00007F10C0318460BF06FFC3B7B19467B7B10
:101B00001A46BB7B24480DF0C1FE3B7C1946234896
:101B10000DF0BCFEBB7D1946FB7D1A463B7E20487E
:101B20000DF0B4FE1F480DF0B1FE786800F070F8BB
:101B30002DE01D480DF0AAFE786800F043F826E07D
:101B40001A480DF013FFFB6902331968FB69023371
:101B50005B681A4616480DF099FE18E0FB690233DF
:101B60001B68194613480DF091FE10E012480DF065
:101B70008DFE0CE0FB6902331B6819460F480DF01F
:101B800085FE04E00E480DF081FE00E000BF00BFBE
:101B90002037BD4680BD00BFEC18010810190108B0
:101BA0002C19010844190108641901088819010851
:101BB000D8190108001A01083C1A0108601A010826
:101BC0009C1A010880B584B000AF78607B685B68C0
:101BD0000B33FB60FB680233BB60BB681B781946A4
:101BE00008480DF053FEBB681B78002B03D1064854
:101BF0000DF0BCFE03E005480DF0B8FE00BF103745
:101C0000BD4680BDC01A0108F01A01082C1B01084E
:101C100080B58AB000AF786007F1080300221A602F
:101C20005A609A60DA6000237B6200233B627B6823
:101C30005B680B33FB61FB690233BB61BB691B78DB
:101C4000002B28D11D480DF091FEFFF7DFFB0F237D
:101C50003B727F23BB72FFF781FD7862796A184877
:101C60000DF014FE7B6A9BB2BB82FFF769FD386200
:101C7000396A14480DF00AFE3B6A9BB2FB8207F1F9
:101C8000080318460BF092FB01F02CFF0021012005
:101C90000CF0E8FD0EE0BB691B78012B06D10A4869
:101CA0000DF0F4FD7B6800221A7003E007480DF088
:101CB000EDFD00BF2837BD4680BD00BF641B010895
:101CC000801B0108A41B0108C41B0108F81B0108A4
:101CD00080B500AF002003F04DFC012003F04AFC6A
:101CE000022003F047FC012003F07EFC00BF80BD12
:101CF00080B500AF0121002003F0AAFC01210120E2
:101D000003F0A6FC0121022003F0A2FC00BF80BD6D
:101D100080B584B000AF786003F0EEFDB8607B68FA
:101D2000FB60FB68B3F1FF3F0AD003F0FDFD034603
:101D30001A46FB681344FB6002E0FFF77FFD30BFEB
:101D400003F0DAFD0246BB68D31AFA689A42F4D867
:101D500000BF00BF1037BD4680BD80B500AF4FF05B
:101D6000FF300CF0AFFD00BF80BD80B400AF00BFFE
:101D7000BD465DF8047B704780B582B000AF7860E7
:101D800000214FF400700CF041FF00BF0837BD4642
:101D900080BD80B582B000AF786002200CF0A2FF59
:101DA00000BF0837BD4680BD80B582B000AF786007
:101DB00002200CF0B7FF00BF0837BD4680BD80B5DC
:101DC00082B000AF0346FB80FB88102B06D0102B9F
:101DD0000DDC012B05D0022B06D008E002F008F93B
:101DE00006E002F015F903E002F019F900E000BF87
:101DF00000BF0837BD4680BD80B500AF034B012250
:101E00000349002000F02AFF00BF80BD151E000816
:101E10008C02002080B500AF154B1B88FF2B1ED80D
:101E2000144B1B780D2B0FD1134914480DF02EFDC8
:101E300000F028F80E4B00221A804FF48072002127
:101E40000D480DF073FE0AE0094B1B885A1C91B235
:101E5000074A11801A46074B1978074B9954084BCB
:101E600001220449002000F0F9FE00BF80BD00BF40
:101E7000940300208C020020940200202C1C0108F6
:101E8000151E000880B500AF1C491D48FEF778F903
:101E90000346002B09D11B480DF068FD1A4B1B4A65
:101EA0001A60194804F064FA26E019491448FEF74C
:101EB00067F90346002B0AD116480DF057FD124B67
:101EC0004FF0B0521A60104804F052FA14E0124970
:101ED0000B48FEF755F90346002B09D10F480DF0CA
:101EE00045FD094B0E4A1A60074804F041FA03E029
:101EF00003490C480DF0CAFC00BF80BD3C1C010822
:101F000094020020401C01088402002004000016F6
:101F1000481C01084C1C0108541C0108581C0108ED
:101F200001000016601C010880B483B000AF0346B6
:101F3000FB80094B1B6800225A6200BF064B1B68DE
:101F40005A6AFB889A42F9D900BF00BF0C37BD46D8
:101F50005DF8047B704700BFDC06002080B483B0CE
:101F600000AF7860064BD3F8802005497B681343A7
:101F7000C1F8803000BF0C37BD465DF8047B704768
:101F80000008005880B483B000AF7860054B1A6831
:101F900004497B6813430B6000BF0C37BD465DF8F6
:101FA000047B70470008005880B483B000AF0D4B2D
:101FB0009B6A9BB27B600B4B9B6A9BB23B6005E0CC
:101FC0003B687B60074B9B6A9BB23B607A683B68CF
:101FD0009A42F5D13B6818460C37BD465DF8047B44
:101FE000704700BF0028004080B485B000AF0346B2
:101FF0000A46FB711346BB71BA791D4913465B0053
:102000001344DB000B4415331B78FB73FB7B062B5F
:1020100009D0FA7B164913465B001344DB000B44DE
:102020001433FA791A70FA79114913465B00134494
:10203000DB000B441533FA7B1A70FA790C4913460E
:102040005B001344DB000B441433BA791A70BA797D
:10205000074913465B001344DB000B441533FA7940
:102060001A7000BF1437BD465DF8047B704700BF8F
:102070009803002080B485B000AF03460A46FB7188
:102080001346BB71294B1B78DBB2BA799A4232D026
:10209000BA79274913465B001344DB000B44143321
:1020A0001B78FB73FA7B224913465B001344DB0069
:1020B0000B441533FA791A70FA791D4913465B00FF
:1020C0001344DB000B441533BA791A70FA791849B6
:1020D00013465B001344DB000B441433FA7B1A7085
:1020E000BA79134913465B001344DB000B441433E5
:1020F000FA791A7014E0FA790D4913465B0013441B
:10210000DB000B441533BA791A70BA7908491346C3
:102110005B001344DB000B441433FA791A7000BFE0
:102120001437BD465DF8047B704700BF28040020CB
:102130009803002080B584B000AF0346FB714E4B7E
:102140001B78DBB2062B18D14B4B1B78DAB24B4B0A
:102150001A70494AFB791370FA79494913465B00B2
:102160001344DB000B44153306221A70454B4FF025
:10217000FF321A600023FB8178E000F009F9034682
:10218000FB81FA793E4913465B001344DB000B44A4
:1021900008331968FB89FA791944394813465B00FA
:1021A0001344DB00034408331960FA7934491346B9
:1021B0005B001344DB000B4408331B68BB602E4BF1
:1021C0001B78DBB219462E4A0B465B000B44DB0042
:1021D000134408331B68BA689A4237D3264B1B78DE
:1021E0007B737A7B264913465B001344DB000B4468
:1021F00015331B783B7313E07A7B214913465B0050
:102200001344DB000B4415331B787B737A7B1C492A
:1022100013465B001344DB000B4415331B783B7300
:102220003B7B062B0BD03A7B154913465B001344CE
:10223000DB000B4408331B68BA689A42DCD27A7B15
:10224000FB7911461846FFF7CFFE0FE00A4B1B78CB
:10225000DAB2FB7911461846FFF70CFF064B1B78E4
:10226000DAB2064B1A70044AFB791370FB891846E0
:102270001037BD4680BD00BF28040020290400207F
:10228000980300202C04002080B485B000AF0346E2
:102290000A46FB711346BB71394B1B78DBB2FA79E6
:1022A0009A4211D1364B1B78DAB2364B1A70FA7952
:1022B000354913465B001344DB000B4415331B7890
:1022C000DAB22F4B1A703EE0FA792F4913465B00C1
:1022D0001344DB000B4414331B78FB73FA792A494F
:1022E00013465B001344DB000B4415331B78BB73B0
:1022F000F979FA7B24480B465B000B44DB0003446E
:1023000015331B78D8B2204913465B001344DB0019
:102310000B44153302461A70BB7B062B13D0F97998
:10232000BA7B19480B465B000B44DB0003441433B3
:102330001B78D8B2144913465B001344DB000B44EE
:10234000143302461A70FA790F4913465B0013449E
:10235000DB000B440C3301221A70094B1B78DBB2F3
:10236000062B07D1BB79002B04D1084B4FF0FF326D
:102370001A6000BF00BF1437BD465DF8047B70478C
:102380002804002029040020980300202C040020A9
:1023900080B582B000AF1A4B1B68B3F1FF3F26D067
:1023A000FFF702FE7860164B1B687A689A4205D8E0
:1023B000134B1A687B68D31A7B600AE0114B1B88A9
:1023C0001A467B68D31A3B600D4B1B683A6813446E
:1023D0007B600D4B1B781A467B6802FB03F37B6026
:1023E0000A4B1B781A467B68D3407B6001E00023D0
:1023F0007B607B689BB218460837BD4680BD00BF36
:102400002C04002034040020320400203104002079
:1024100080B582B000AF0346FB80FB88002B08D15B
:10242000FFF7C2FD0346214A1360032003F011FCAD
:1024300039E0FB88012B03D81D4B1B78012B02D000
:10244000FB88013BFB8000BF1A4B1B68DB6803F075
:102450000403002BF8D0174B1B68DB68DAB2154B6E
:102460001B6862F49062DA60134B4FF40022DA606A
:10247000032003F0FCFB114B5B691B0C1B04FA8867
:102480000E4913434B61FFF78FFD0346074A136064
:10249000084B1B689A68074B1B6842F480629A607D
:1024A000AFF3008000BF0837BD4680BD2C0400207C
:1024B00031040020B8060020000800580028004021
:1024C00080B584B000AF454B9B6803F48063B3F5DF
:1024D000806F07D100BF424B1B68DB6803F0040329
:1024E000002BF8D13E4B1B689A683D4B1B6822F4C9
:1024F00080629A603B4B1B78FB73FA7B3A49134628
:102500005B001344DB000B4408331B68BB60FFF720
:102510003FFF0346FB80FB88BA689A4205D200233E
:10252000BB81324B01221A704DE0FB88304A128881
:1025300092B213441A46BB68934206D92C4B1B88AF
:10254000BB812A4B00221A703DE0BB689AB2FB881F
:10255000D31ABB81254B01221A7034E0FA7B224941
:1025600013465B001344DB000B4408331A68FB88F6
:102570009A420AD2FA7B1C4913465B001344DB00E3
:102580000B44083300221A6013E0FA7B1649134605
:102590005B001344DB000B4408331968FB88FA7BAB
:1025A000C91A114813465B001344DB000344083387
:1025B0001960FA7B0C4913465B001344DB000B44A3
:1025C00015331B78FB73FB7B062BC7D1BB891846E1
:1025D000FFF71EFF00BF1037BD4680BD002800403A
:1025E000B8060020280400209803002030040020B2
:1025F0003604002080B58AB000AFEFF310837B6112
:102600007B697B6272B600BF594B1B68CA225A6253
:10261000574B1B6853225A62554B1B689A68544BA0
:102620001B6822F480629A60524B1B7887F8233033
:1026300097F82320504913465B001344DB000B44FA
:102640000C331B78DBB2022B6ED197F823204A495A
:1026500013465B001344DB000B441B68FB6197F8D7
:102660002320454913465B001344DB000B44103321
:102670001B68BB61414B1B78DBB2002B4CD097F839
:1026800023203D4913465B001344DB000B440D330C
:102690001B78DBB2012B24D197F823300121184697
:1026A000FFF7F2FD7B6A3B613B6983F3108800BF53
:1026B00097F82320304913465B001344DB000B449A
:1026C00004331A6897F823301146184600F032FA9E
:1026D000274B1B68CA225A62254B1B6853225A6239
:1026E00012E07B6AFB60FB6883F3108800BF97F8F9
:1026F0002330184600F09AF91D4B1B68CA225A6213
:102700001B4B1B6853225A6297F82330FA6919460B
:10271000B86900F095FA22E0FFF7D2FE7B6ABB6051
:10272000BB6883F310881AE000BF114B1B68DB689D
:1027300003F00403002BF8D00D4B1B68DB68DAB202
:102740000B4B1B6862F49062DA600D4B4FF4002271
:10275000DA607B6A7B607B6883F3108800BF044B80
:102760001B68FF225A6200BF2837BD4680BD00BFEC
:10277000B806002028040020980300203004002020
:102780000008005880B588B000AF03463960FB717F
:102790005E4B1B68CA225A625C4B1B6853225A620A
:1027A0005B4B9B685A4A43F020039360584B9B68ED
:1027B000DBB203F00703DBB2C3F10403DAB2554B1B
:1027C0001A70534B1B6903F4FE034FF4FE023A6187
:1027D0003A6992FAA2F2FA60FA687A617A69002A92
:1027E00001D1202203E07A69B2FA82F2D2B2D34058
:1027F000DBB20133DAB2484B1A70454B1B699BB20E
:10280000C3F30E039BB201339AB2444B1A80434B7D
:102810001B88013B404A127802FB03F3A3F5A07327
:102820003C4A1278D340BB61BB694FF6FE729342BB
:1028300004D93B4B4FF6FF721A8003E0BB699AB292
:10284000374B1A804FF40020FFF79CFB4FF4002019
:10285000FFF784FBFB79002B3DD1324B01221A702C
:10286000314B4FF0FF321A600023FB770CE0FA7F08
:102870002E4913465B001344DB000B440C3300224B
:102880001A70FB7F0133FB77FB7F052BEFD9284BB9
:1028900006221A701D4B1B689A681C4B1B6822F499
:1028A00080629A60194B1B68DB68DAB2174B1B68B1
:1028B00062F49062DA601F4B4FF40022DA6003206A
:1028C00003F0D5F9114B1B689A68104B1B6842F452
:1028D00080429A6009E00D4B1B68DB6803F480635B
:1028E000002B02D0032003F0B4F9084B1B68FF2231
:1028F0005A6200220321032003F069F9032003F048
:1029000080F900BF2037BD4680BD00BFB80600205B
:10291000002800403104002032040020340400204C
:1029200036040020300400202C04002098030020EE
:10293000280400200008005880B48BB000AFF86075
:10294000B9603B601346FB71002387F82630EFF334
:102950001083FB61FB693B6272B600BF04E097F82D
:102960002630013387F8263097F82630052B0CD80F
:1029700097F826202C4913465B001344DB000B44D8
:102980000C331B78DBB2002BE9D197F82630062BED
:1029900038D097F82620244913465B001344DB0007
:1029A0000B440C3301221A703B6ABB61BB6983F391
:1029B000108800BF97F826201B4913465B0013447C
:1029C000DB000B441033FA681A6097F8262016498A
:1029D00013465B001344DB000B440D33FA791A7085
:1029E00097F82620104913465B001344DB000B4484
:1029F0003A681A60BB6897F826201A70002387F897
:102A0000273008E03B6A7B617B6983F3108800BF55
:102A1000012387F8273097F8273018462C37BD4612
:102A20005DF8047B704700BF9803002080B586B036
:102A300000AF0346FB71EFF31083FB60FB687B6123
:102A400072B600BF032003F0EAF8344B1B68CA22B9
:102A50005A62324B1B6853225A62FA793049134644
:102A60005B001344DB000B440C331B78DBB2022BFE
:102A700042D1FB7900211846FFF706FC294B1B7851
:102A8000FB74FB7C062B2FD1274B9B6803F48063E0
:102A9000B3F5806F07D100BF204B1B68DB6803F0E4
:102AA0000403002BF8D11D4B1B689A681B4B1B6855
:102AB00022F480629A6000BF184B1B68DB6803F049
:102AC0000403002BF8D0154B1B68DB68DAB2134BFC
:102AD0001B6862F49062DA60144B4FF40022DA60F3
:102AE000032003F0C4F807E0114B1B78DBB2FA7C3B
:102AF0009A4201D0FFF7E4FC084B1B68FF225A62A0
:102B0000032003F07EF87B69BB60BB6883F3108809
:102B100000BF00BF1837BD4680BD00BFB80600200B
:102B200098030020280400200028004000080058D6
:102B30002904002080B586B000AF03463960FB71E0
:102B4000FA793B4913465B001344DB000B440C331A
:102B50001B78DBB2022B03D1FB791846FFF766FF27
:102B6000EFF31083FB60FB687B6172B600BF03204C
:102B700003F055F82F4B1B68CA225A622D4B1B6875
:102B800053225A62FA792A4913465B001344DB0048
:102B90000B440C3302221A70FA79254913465B0064
:102BA0001344DB000B4408333A681A60FA79204971
:102BB00013465B001344DB000B4404333A681A608D
:102BC000FB791846FFF7B6FA03467B821A4B1B784F
:102BD0007B741A4B1B78DBB27A7C9A4202D0FFF7E7
:102BE0006FFC13E0FA79124913465B001344DB00D3
:102BF0000B44083319687B8AFA79C91A0C481346C2
:102C00005B001344DB00034408331960094B1B6865
:102C1000FF225A62032002F0F4FF7B69BB60BB68AD
:102C200083F3108800BF00BF1837BD4680BD00BFCA
:102C300098030020B8060020280400202904002062
:102C400080B584B000AFF8600B467A60FB727B6899
:102C5000984700BF1037BD4680BD000080B584B0E6
:102C600000AFB9607B600346FB731346BB81FB7BFF
:102C7000002B0CD1084A7B681360084B084A1A6085
:102C8000BB891A46B968054806F0F0FE00E000BFAF
:102C900000BF1037BD4680BD380400206405002009
:102CA0000038014080B586B000AFB9607B60034654
:102CB000FB731346BB810023FB750023BB75FB7BB5
:102CC000002B0ED1174A7B681360174B174A1A6006
:102CD000BB891A46B968144806F014FF0346FB7511
:102CE00000E000BFFB7D032B16D801A252F823F0B1
:102CF000012D0008072D00080D2D0008132D0008D8
:102D00000023BB7509E00123BB7506E00223BB75F8
:102D100003E00323BB7500E000BFBB7D18461837F6
:102D2000BD4680BD3C040020640500200038014001
:102D300080B582B000AF78607B681B681A46094B8B
:102D40009A4207D1084B1B68002B05D0064B1B6825
:102D5000984701E000BF00E000BF00BF0837BD4654
:102D600080BD00BF003801403804002080B582B02B
:102D700000AF78607B681B681A46094B9A4207D1FE
:102D8000084B1B68002B05D0064B1B68984701E0D9
:102D900000BF00E000BF00BF0837BD4680BD00BFD8
:102DA000003801403C04002080B483B000AF78605C
:102DB0004FF0B043D3F8903023F018024FF0B041F9
:102DC0007B681343C1F8903000BF0C37BD465DF8F7
:102DD000047B704780B485B000AF78604FF0B0439B
:102DE0009A6C4FF0B0417B6813438B644FF0B04353
:102DF0009A6C7B681340FB60FB6800BF1437BD46CC
:102E00005DF8047B704780B485B000AF78604FF008
:102E1000B043DA6C4FF0B0417B681343CB644FF0A2
:102E2000B043DA6C7B681340FB60FB6800BF14376B
:102E3000BD465DF8047B704780B584B000AF02F0FA
:102E4000EDFCFEF73BFD00F071F800F0CBF800F070
:102E500029F900F030FA00F011FA00F08DF900F0D5
:102E6000E1F800F0BDF900F0E1F900F07DF9294842
:102E700006F040FB284806F083FB01212748FEF7B7
:102E800013F940F6B830FEF743FFFEF725FDFEF7D5
:102E900064FF012201214FF0904003F0FBFBFEF79D
:102EA00087F9F0EE407AFCEEE77AC7ED017A3B79DC
:102EB000DAB21B4B1A70002201214FF0904003F050
:102EC000E9FB4FF4FA70FFF72FF8012201214FF0D0
:102ED000904003F0DFFBFEF78FF903461A46114BD3
:102EE0001A60104B1B6807EE903AB8EE677ADFED78
:102EF0000E6AC7EE267AC7ED037A002201214FF051
:102F0000904003F0C7FB4FF4FA70FFF70DF800BFD5
:102F1000BDE700BFDC060020280700204004002099
:102F200074070020780700200000C84280B59AB0DE
:102F300000AF07F120034822002118460CF0F6FDEF
:102F40003B1D00221A605A609A60DA601A615A6169
:102F50009A6104F09DFA0020FFF726FF204B1B68C2
:102F600023F4C0631E4A43F4007313601C4B1B68B8
:102F700003F4C0633B603B6807233B624FF480333C
:102F80007B620123BB624FF48073FB6240233B638F
:102F90000023FB6407F12003184604F00DFE0346EE
:102FA000002B01D000F0B2F96F237B600223BB60DD
:102FB0000023FB6000233B6100237B610023BB6196
:102FC0000023FB613B1D0121184605F069F903460A
:102FD000002B01D000F09AF900BF6837BD4680BDD4
:102FE0000004005880B594B000AF3B465022002149
:102FF00018460CF09BFD4FF440533B604FF4804368
:103000007B640223BB641023FB643B46184605F037
:1030100084FD0346002B01D000F078F900BF503743
:10302000BD4680BD80B500AF1B4B1C4A1A601A4BD1
:103030001B4A5A60184B00229A60174B0122DA6033
:10304000154B00221A61144B00225A61124B0022C8
:103050009A61114B0022DA610F4B00221A620E486E
:1030600003F06CFB0346002B01D000F04FF9002168
:10307000094804F0EFF80346002B01D000F046F9B0
:103080000021054804F031F90346002B01D000F07F
:103090003DF900BF80BD00BF400400200054004047
:1030A000B47CB00080B500AF064B074A1A600548F3
:1030B00004F068F90346002B01D000F027F900BFA7
:1030C00080BD00BF94040020000C005880B500AF04
:1030D000234B244A1A60224B4FF4E1325A60204BB2
:1030E00000229A601E4B0022DA601D4B00221A61FA
:1030F0001B4B0C225A611A4B00229A61184B4FF459
:103100000042DA61164B00221A62154B00225A6205
:10311000134B00229A62124806F058FC0346002B1B
:1031200001D000F0F3F800210D4808F0C8FC034678
:10313000002B01D000F0EAF80021094808F0FDFC5E
:103140000346002B01D000F0E1F8054808F07EFCB2
:103150000346002B01D000F0D9F800BF80BD00BFAE
:10316000640500200038014080B400AF00BFBD46B8
:103170005DF8047B7047000080B500AF164B174A1E
:103180001A60154B00225A60134B0F229A60124BA3
:1031900047F6FF72DA60104B00221A610E4B0022D4
:1031A0009A610D4B0022DA610B4B00225A610A48EA
:1031B00005F03AFF0346002B01D000F0A7F80022EB
:1031C0000021054806F03CF80346002B01D000F032
:1031D0009DF800BF80BD00BFB80600200028004059
:1031E00080B500AF0F4B104A1A600E4B1F225A6079
:1031F0000C4B00229A600B4B4FF6FF72DA60094BC2
:1032000000221A61074B00225A61064B00229A6184
:10321000044806F017F90346002B01D000F076F8B9
:1032200000BF80BDDC0600200044014080B500AF37
:10323000104B114A1A600F4B40F2FF125A600D4BAF
:1032400000229A600B4B4FF6FF72DA60094B0022A6
:103250001A61084B00225A61064B00229A61054808
:1032600006F0F0F80346002B01D000F04FF800BF45
:1032700080BD00BF280700200048014080B500AF96
:103280000420FFF7A7FD0220FFF7A4FD0120FFF7B0
:10329000A1FD00220F210E2002F099FC0E2002F069
:1032A000B0FC00220F213A2002F091FC3A2002F0FB
:1032B000A8FC00BF80BD80B586B000AF3B1D0022DA
:1032C0001A605A609A60DA601A610420FFF79BFD69
:1032D0000220FFF798FD0120FFF795FD0022012154
:1032E0004FF0904003F0D6F901237B600123BB60CF
:1032F0000023FB6000233B613B1D19464FF09040CB
:1033000003F058F800BF1837BD4680BD80B400AF49
:1033100000BFBD465DF8047B704780B400AF4FF03E
:10332000B043D3F890304FF0B04243F40043C2F8BA
:10333000903000BFBD465DF8047B704780B485B017
:1033400000AF78604FF0B043DA6C4FF0B0417B686B
:103350001343CB644FF0B043DA6C7B681340FB60DF
:10336000FB6800BF1437BD465DF8047B704780B42E
:1033700085B000AF78604FF0B0431A6D4FF0B041A8
:103380007B6813430B654FF0B0431A6D7B681340A5
:10339000FB60FB6800BF1437BD465DF8047B7047D7
:1033A00080B485B000AF78604FF0B0439A6D4FF0B5
:1033B000B0417B6813438B654FF0B0439A6D7B68D7
:1033C0001340FB60FB6800BF1437BD465DF8047B0B
:1033D000704780B485B000AF78604FF0B043DA6DCD
:1033E0004FF0B0417B681343CB654FF0B043DA6DCB
:1033F0007B681340FB60FB6800BF1437BD465DF877
:10340000047B704780B485B000AF78604FF0B04364
:103410001A6E4FF0B0417B6813430B664FF0B04318
:103420001A6E7B681340FB60FB6800BF1437BD4613
:103430005DF8047B704780B500AF4FF40020FFF7C4
:1034400096FF002200212E2002F0C1FB2E2002F068
:10345000D8FB00BF80BD000080B59CB000AF786095
:1034600007F15C0300221A605A609A60DA601A6100
:1034700007F10C035022002118460CF057FB7B6823
:103480001B68174A934226D10423FB604FF4403354
:10349000FB6207F10C03184605F03FFB0346002BC7
:1034A00001D0FFF733FF0220FFF748FF4FF44073CE
:1034B000FB6512233B6600237B660023BB66042367
:1034C000FB6607F15C031946064802F073FF4FF4F0
:1034D0000010FFF765FF00BF7037BD4680BD00BF1D
:1034E000005400400004004880B582B000AF78600E
:1034F0007B681B680D4A934213D14FF48010FFF78D
:1035000036FF002200212C2002F061FB2C2002F06B
:1035100078FB002200212D2002F059FB2D2002F023
:1035200070FB00BF0837BD4680BD00BF000C0058CF
:1035300080B5A0B000AF786007F16C0300221A607C
:103540005A609A60DA601A6107F10C035022002178
:1035500018460CF0EBFA7B681B68684A93426ED100
:103560000223FB600023BB6207F10C03184605F041
:10357000D4FA0346002B01D0FFF7C8FE0120FFF765
:1035800028FF0120FFF7DAFE0C23FB6602233B67CE
:1035900000237B670323BB670823FB6707F16C03EA
:1035A00019464FF0904002F005FF554B554A1A60FE
:1035B000534B11225A60524B10229A60504B0022FA
:1035C000DA604F4B80221A614D4B00225A614C4BFE
:1035D00000229A614A4B0022DA61494B00221A62AA
:1035E000474802F053FB0346002B01D0FFF78EFE45
:1035F0004FF08853FB6500233B66002387F8643057
:10360000002387F865300123BB6607F15C03194688
:103610003B4802F06DFE0346002B01D0FFF776FE1B
:103620007B68374ADA67364A7B689362002200215A
:10363000252002F0CCFA252002F0E3FA5AE07B685C
:103640001B68314A934255D10123FB6000237B6202
:1036500007F10C03184605F060FA0346002B01D071
:10366000FFF754FE4FF48040FFF7CCFE0220FFF737
:1036700065FEC023FB6602233B6701237B670323B0
:10368000BB670723FB6707F16C0319461F4802F06D
:1036900091FE1F4B1F4A1A601D4B0F225A601C4B94
:1036A00010229A601A4B0022DA60194B80221A61AC
:1036B000174B00225A61164B00229A61144B0022CC
:1036C000DA61134B00221A62114802F0DFFA034656
:1036D000002B01D0FFF71AFE7B680D4ADA670C4A0F
:1036E0007B68936200220021242002F070FA2420DB
:1036F00002F087FA00BF8037BD4680BD00800040E1
:10370000F805002044000240003801400004004851
:10371000580600204404024080B596B000AF78609F
:1037200007F108035022002118460CF0FFF97B68CE
:103730001B68144A934220D14FF40063BB604FF4DE
:103740008073BB6407F10803184605F0E6F90346E9
:10375000002B01D0FFF7DAFDFFF7DFFD4FF48060AB
:10376000FFF71EFE00220021032002F030FA0320A2
:1037700002F047FA786805F02FFE00BF5837BD46C3
:1037800080BD00BF0028004080B582B000AF7860E7
:103790007B681B68124A93420CD14FF40030FFF74C
:1037A00031FE00220021192002F011FA192002F046
:1037B00028FA10E07B681B680A4A93420BD14FF449
:1037C0008020FFF71FFE002200211A2002F0FFF9DF
:1037D0001A2002F016FA00BF0837BD4680BD00BFB0
:1037E000004401400048014080B400AF00BFBD4626
:1037F0005DF8047B704780B400AF00BFFDE780B484
:1038000000AF00BFFDE780B400AF00BFFDE780B4AC
:1038100000AF00BFFDE780B400AF00BFBD465DF85C
:10382000047B704780B400AF00BFBD465DF8047BE9
:10383000704780B400AF00BFBD465DF8047B7047A1
:1038400080B500AF02F044F800BF80BD80B500AF86
:10385000FEF7D0FE00BF80BD80B500AF024802F089
:10386000F6FB00BF80BD00BFF805002080B500AFAB
:10387000024805F0D3FE00BF80BD00BFDC0600207B
:1038800080B500AF024805F0C9FE00BF80BD00BF93
:103890002807002080B500AF024806F0B3F900BF4A
:1038A00080BD00BF6405002080B500AF024806F06F
:1038B000A9F900BF80BD00BFD004002080B500AFD3
:1038C00001F04EFC00BF80BD80B500AF01F07EFC72
:1038D00000BF80BD80B500AF02F00CFF00BF80BD0F
:1038E00080B500AF024802F0B2FB00BF80BD00BF50
:1038F0005806002080B500AF102002F0E3FE00BFA4
:1039000080BD80B500AF012002F0DCFE00BF80BDAD
:1039100080B500AF022002F0D5FE00BF80BD0000E0
:1039200080B582B000AF78607B681B68054A93421F
:1039300004D100214FF480700BF068F900BF083704
:10394000BD4680BD0048014080B400AF0123184649
:10395000BD465DF8047B704780B582B000AF7860EB
:1039600039600CF035F9034616221A604FF0FF3328
:1039700018460837BD4680BD80B582B000AF78607C
:103980004FF0FF317868FFF7E7FF00BFFDE780B534
:1039900086B000AFF860B9607A6000237B610AE00E
:1039A000AFF300800146BB685A1CBA60CAB21A70F5
:1039B0007B6901337B617A697B689A42F0DB7B68C3
:1039C00018461837BD4680BD80B483B000AF78601C
:1039D0004FF0FF3318460C37BD465DF8047B704747
:1039E00080B483B000AF786039603B684FF4005218
:1039F0005A60002318460C37BD465DF8047B7047BB
:103A000080B483B000AF7860012318460C37BD4600
:103A10005DF8047B704780B485B000AFF860B96092
:103A20007A60002318461437BD465DF8047B704762
:103A300080B586B000AF7860144A154BD31A7B610D
:103A40007B693B61134B1B68002B02D1114B124A5F
:103A50001A60104B1A687B6813443A699A4207D27D
:103A60000CF0B6F803460C221A604FF0FF3309E061
:103A7000084B1B68FB60074B1A687B681344054AB8
:103A80001360FB6818461837BD4680BD0000032050
:103A9000001000007C070020C81A002080B400AF8E
:103AA000034B1B681846BD465DF8047B704700BF9A
:103AB0008075FF1F80B400AF034B1B68DBB2184654
:103AC000BD465DF8047B70478475FF1F80B400AF6E
:103AD000034B1B681B0A1846BD465DF8047B704704
:103AE0008475FF1FB0B590B000AF922387F83F30C8
:103AF000334B3C461D460FCD0FC40FCD0FC40FCD29
:103B00000FC495E8070003C422800234130C23700D
:103B100000F08CFA012102200AF0A4FE294A0021BB
:103B200010200BF051F83B46184609F011FC0346F3
:103B300087F83E3097F83E30002B08D097F83E309B
:103B4000194621480BF0A2FEFFF7E0FB02E01F48F8
:103B50000BF09CFE00F080FA0AF05CFB1C4A00218E
:103B600001200BF031F81B4A002102200BF02CF849
:103B7000194B002283F88020202009F012F8034618
:103B800087F83F3097F83F30002B06D097F83F304A
:103B9000194612480BF07AFE02E011480BF076FE4F
:103BA0000A200BF085FE00F0EBFC0E4B00220E49C4
:103BB0000020FEF7C1FE00BF4037BD46B0BD00BFCC
:103BC0005C1D0108C1CF0008801C0108B81C010859
:103BD00049430008AD43000894070020E01C010899
:103BE000241D01083144000815080020F0B597B0E5
:103BF00006AF78607B680133BB63BB6B02337B63CA
:103C00000023FB63922387F83330BB6B1B78FF2BB9
:103C100009D0FF2B00F3C181052B00F0CE803E2B95
:103C200000F0E980B9E1A74B01221A70BB6B0233A7
:103C3000FB62FB6A1B889BB240F60202934233D0C0
:103C400040F60202934200F3B480042B00F0A680F9
:103C500040F20742934240F0AC80FB6A02337B6241
:103C60007B6A1B78022B40F0A6807B6A5B78002B76
:103C700040F0A180002001F0D1FC93480BF076FECB
:103C800092480BF003FE924B93F88230012B40F0E8
:103C900092808F4B93F88030062B00F08C800021AF
:103CA00002200AF0B3FF86E0FB6A0233BB62002009
:103CB00008F077FF034687F8333097F83330002B4E
:103CC00006D097F83330194682480BF0DFFD02E04A
:103CD00081480BF0DBFDBB6A9A78804B1A70BB6A97
:103CE000B3F803309AB27D4B5A80BB6AB3F8053003
:103CF0009AB27A4B9A80BB6AB3F807309AB2774B84
:103D0000DA80BB6AB3F809309AB2744B1A81BB6A85
:103D1000B3F80B309AB2714B5A816D4BD88A6F4B06
:103D200099886E4BDC886D4B1D896C4B5B896B4AA7
:103D30001278012604960392102202921022019218
:103D400000932B46224608F0A4FF034687F8333041
:103D500097F83330002B09D097F833301946604874
:103D60000BF094FD022001F03FFC02E05D480BF0F7
:103D70008DFD202008F015FF034687F8333097F8B3
:103D80003330002B06D097F83330194651480BF0EA
:103D90007DFD11E050480BF079FD0DE0012001F0B0
:103DA00023FC4B4B93F881300A211846FEF7C2FEE4
:103DB00002E000BFF4E000BFF2E07B6BB3F801303B
:103DC0009AB2434BDB8A9A4240F0E980404B002292
:103DD000DA823F4B002283F8802043480BF056FDE7
:103DE000384B01221A703A4BDA8A364B5A803548E2
:103DF00000F014FCD3E0BB6B02333B623B6A1B78E0
:103E0000012B02D0022B2FD0C6E03B6A0133FB60AE
:103E1000FB68B3F801309AB22D4BDA822C4B0622A4
:103E200083F8802031480BF031FD264B00221A70B8
:103E3000274BDA8A234B5A80224800F0EFFB244BB1
:103E4000DB8A184608F02CFB0346FB72FB7A002B3A
:103E500006D127480BF01AFD26480BF017FD9BE012
:103E600025480BF013FD97E03B6A0133FB61FB69CA
:103E70005B78FB76FB695B7ABB76FB6909330133C0
:103E80007B610023FB63FB7E002B40F084807DE0A0
:103E9000FB6B7A6913441B78FB74FB6B01337A6903
:103EA00013441B78BB74BB7CFF2B27D0FF2B5FDC3C
:103EB000162B5FD0162B5BDC012B5DD00A2B5DD05F
:103EC00056E000BF90070020981D0108A81D0108BA
:103ED00094070020E01C0108241D01081808002098
:103EE000D81D0108281E0108681E0108941E01083B
:103EF000C41E0108F81E0108281F0108FB7C062BC0
:103F00003ED9FB6B02337A6913441B78012B37D1FE
:103F100026480BF0BBFCFB6B03337A6913441B7818
:103F2000832B23D122480BF0B1FC224B012283F8D2
:103F30008220FB699A78204B1A70FB69DA781F4B54
:103F40001A70FB691A791D4B5A70FB695A791B4B21
:103F50009A70FB699A79194BDA70FB69DA79174B19
:103F60001A71FB691A7A154B5A7100E000BF07E01D
:103F700000BF06E000BF04E000BF02E000BF00E0B9
:103F800000BFFB7C0133FA6B1344FB63BB7EFA6B0F
:103F90009A42FFF67DAF00BF02E000BF00E000BF25
:103FA000012318464437BD46F0BD00BF681F010815
:103FB000881F0108940700208E0700208807002032
:103FC00080B483B000AF0346FB80084BDB8AFA88DD
:103FD0009A4203D1054B93F8803000E00023184645
:103FE0000C37BD465DF8047B704700BF9407002086
:103FF00080B500AF00F054FE0346062B04D000212C
:1040000001200AF003FE01E000F03AFB00BF80BD92
:1040100080B400AF00BFBD465DF8047B704780B43C
:1040200000AF00BFBD465DF8047B704780B582B02D
:1040300000AF064B3B60064B7B603B46194605488C
:1040400008F0A2FF00BF0837BD4680BD280003204E
:10405000454500080D450008F0B58DB006AF0023BA
:104060003B809223FB759C480BF080FC08F0EDFD33
:104070000346FB75FB7D002B05D0FB7D1946974859
:104080000BF004FC02E096480BF070FC00F0D8F94D
:1040900038613A690621002008F097FC0346FB7559
:1040A000FB7D002B05D0FB7D19468E480BF0EEFB07
:1040B00021E08D480BF05AFC3B6905331B7818460C
:1040C0003B6904331B781C463B6903331B781D4650
:1040D0003B6902331B781A463B6901331B7819464A
:1040E0003B691B780293019100922B4622460146C0
:1040F0007E480BF0CBFB7E4A1021182008F065FCAF
:104100000346FB75FB7D002B05D0FB7D19467948E6
:104110000BF0BCFB02E078480BF028FC774A10213A
:10412000082008F052FC0346FB75FB7D002B05D0F0
:10413000FB7D194672480BF0A9FB02E071480BF0B9
:1041400015FC1821012008F0C5FC0346FB75FB7D1A
:10415000002B05D0FB7D19466B480BF097FB02E066
:104160006A480BF003FC08F0CDF80346FB75FB7DB5
:10417000002B05D0FB7D194665480BF087FB02E05C
:1041800064480BF0F3FB0023FB73FB7B43F0040359
:10419000FB73FB7B002B2BD05F4BBB60BA1DF87B06
:1041A000BB1C01933B1D009313460722002107F01F
:1041B00069FE0346FB75FB7D002B05D0FB7D194690
:1041C00056480BF063FB02E055480BF0CFFBFC8830
:1041D000BD88B868FCF734F80346DAB2BB680093D0
:1041E000134600222946204608F0B1F80346FB7525
:1041F000F88879883B4600930223002208F0A7F84C
:104200000346FB75474B01221A70464B1B78184634
:1042100007F020FD0346FB75FB7D002B05D0FB7DE1
:10422000194641480BF032FB02E040480BF09EFB80
:104230003C4B01225A703B4B08221A71394B102219
:104240005A71384B0122DA70364B394A9A60354B35
:1042500001229A70334B9C78324B5D78314B1B793D
:10426000304A52792F49C9782E4880680026049632
:1042700003900291019200930023012229462046D7
:1042800007F03CFD0346FB75FB7D002B05D0FB7D55
:10429000194628480BF0FAFA02E027480BF066FBB3
:1042A000204B9B78002B0FD007F099FE0346FB753F
:1042B000FB7D002B05D0FB7D194620480BF0E6FA6C
:1042C00002E01F480BF052FB1E480BF0DFFA00BF64
:1042D0001C37BD46F0BD00BFAC1F0108D81F010848
:1042E00008200108282001088C200108E02001088E
:1042F000582A01081C21010874210108682A0108B4
:10430000BC210108142201085C2201089C2201083A
:10431000CC22010800230108242301082C230108D2
:104320005C230108940700207C230108BC230108BA
:1043300007B20100EC2301083824010874240108A5
:10434000B4240108E424010880B582B000AF134B07
:1043500093F88030062B1DD0002001F045F910485D
:104360000BF004FB012300224FF448714FF4487016
:1043700007F059FE0346FB71FB79002B03D1094876
:104380000BF084FA06E0022001F02EF906480BF04B
:104390007DFA00BF00BF0837BD4680BD94070020EE
:1043A000102501081C2501084C25010880B58AB09C
:1043B00008AF1B480BF06AFA1A4B93F88030062BB3
:1043C00029D0194B1A7810230693102305934FF424
:1043D000FA73049300230393502302932823019339
:1043E00000230093114B4FF448714FF4487007F0CD
:1043F000AEFE0346FB71FB79002B04D1094B04226E
:1044000083F8802007E0022001F0EEF8054B00223F
:1044100083F8802000BF00BF0837BD4680BD00BFC5
:104420007C250108940700208E07002088070020C3
:1044300080B500AF012001F0F1F800BF80BD0000A1
:1044400080B586B000AFFFF729FB38613B69B3F157
:10445000FF3F23D0FFF73AFBB860FFF72BFB7860F4
:104460003B69DAB2164B1A703B691B0ADAB2144B7D
:104470005A707B68DAB2124B9A70BB68DAB2104B92
:10448000DA70BB681B0ADAB20D4B1A71BB681B0CE1
:10449000DAB20B4B5A710A4B7B610BE0002008F03B
:1044A0002FFFF860FB68002B02D0FB687B6101E006
:1044B000044B7B617B6918461837BD4680BD00BF41
:1044C00080070020502A010880B582B000AF7860D4
:1044D000002110200AF09AFB00BF0837BD4680BDBE
:1044E00080B582B000AF786001200AF0FBFB00BF0E
:1044F0000837BD4680BD80B582B000AF786001202E
:104500000AF010FC00BF0837BD4680BD80B584B0FE
:1045100000AF78607B68FB60FB685B680833184617
:1045200009F0CAFE0346FB72FB7A002B03D0FB683E
:1045300001221A7003E0FB6800221A7000BF1037D6
:10454000BD4680BD80B584B000AF0346FB71FB79EA
:10455000002B02D0012B07D00DE040F2FF13FB60CF
:10456000F8680AF07FFB06E040F2FF13FB60F86892
:104570000AF098FB00BF00BF1037BD4680BD0000A9
:1045800080B582B000AF0023FB711D4A00210420DA
:104590000AF01AFB1B4A002120200AF015FB1A4AD8
:1045A00000214FF480700AF00FFB184B00221A70A4
:1045B000164B0022DA80154B00225A70134B002252
:1045C0009A70124B0122DA70104B00221A710023EC
:1045D000FB7108E0FB790E4A1B01134400221A709C
:1045E000FB790133FB71FB79002BF3D0094809F00B
:1045F00049FE09480BF0BAF900BF0837BD4680BD37
:10460000B14D0008694D00082D4D00083408002008
:104610002408002091460008A825010880B584B030
:1046200000AF78607B681B78002B02D0012B05D08F
:104630001EE07B685A88104BDA8019E00023FB7378
:104640000D4B0022DA8005E0FB7B0C4A1B01134472
:1046500000221A70FB7B002B06D1FB7B074A1B0153
:1046600013441B78002BEFD1002000F0D7FF00BFD0
:1046700000BF1037BD4680BD34080020240800204C
:1046800080B500AF002120200AF0C0FA00BF80BD35
:1046900080B594B000AF7860002387F845307B6820
:1046A00001333B643B6C1B78FF2B40F0AD823B6CCD
:1046B0000233FB63FB6B1B889BB2A3F604430C2BFA
:1046C00000F2968201A252F823F000BFF7490008D9
:1046D000F14B0008B1480008F14B0008F14B00080D
:1046E000F14B000801470008F14B0008F14B0008AE
:1046F000F14B0008F14B00081F4B00089B4B0008D2
:10470000FB6B02333B633B6B1A785B781B021343F2
:10471000FB85002387F84D302EE097F84D30B94ADD
:104720001B01134402331B881846FFF749FC03465C
:1047300087F82D3097F84D30B24A1B0113441B788F
:10474000062B14D197F82D30002B10D197F84D304F
:10475000AC4A1B01134400221A7097F84D30A94A45
:104760001B01134402334FF6FF721A8010E097F8D2
:104770004D30013387F84D3097F84D30002B07D17D
:1047800097F84D309F4A1B0113441B78002BC4D16E
:1047900097F84D30002B40F02D8297F84D30994A14
:1047A0001B0113440233FA8D1A803B6BDA783B6BA2
:1047B0009B78B2FBF3F387F82C303B6B9B78142B80
:1047C00040F01882102387F84E30002387F84F30CE
:1047D00067E097F84E303A6B13441B79194697F807
:1047E0004E303A6B1344043301331B781B029BB2E7
:1047F0000B437B857B8D4FF64062934247D197F800
:104800004D30804A1B01134402331B8819467E48F1
:104810000BF03CF897F84E30103B3A6B13441B7981
:10482000194697F84E30103B3A6B1344043301336A
:104830001B781B029AB297F84D300A4391B2714A25
:104840001B01134404330A461A8097F84E300E3B7E
:104850003A6B13441B79194697F84E300E3B3A6B6E
:104860001344043301331B781B029AB297F84D307E
:104870000A4391B2634A1B01134406330A461A8065
:1048800097F84D305F4A1B01134408221A7097F8BD
:104890004E30063387F84E3097F84F30013387F8A3
:1048A0004F3097F84F2097F82C309A4291D3A1E1DE
:1048B000FB6B02337B62002387F84B3004E097F8F0
:1048C0004B30013387F84B3097F84B30002B0BD12E
:1048D00097F84B304B4A1B01134402331A887B6A0A
:1048E0001B889BB29A42EAD197F84B30002B40F0DC
:1048F0008381112387F84C307B6A9B78152B40F01D
:104900007B817B6ADB78013BDAB27B6ADA706DE02F
:1049100097F84C307A6A13441B79194697F84C3053
:104920007A6A1344043301331B781B029BB20B4396
:104930007B8497F84C300E3B7A6A13441B791946F6
:1049400097F84C300E3B7A6A1344043301331B78DA
:104950001B029BB20B433B847B8C4FF6416293421C
:104960001AD197F84B30274A1B01134402331B8896
:10497000194626480AF08AFF97F84B30214A1B0156
:10498000134409221A7097F84B301E4A1B01134436
:1049900008333A8C1A801EE07B8C4FF642629342B9
:1049A00019D197F84B30174A1B01134402331B8867
:1049B000194617480AF06AFF97F84B30114A1B0155
:1049C00013440A221A7097F84B300E4A1B01134405
:1049D0000C333A8C1A807B6ADB78153BDAB27B6A3F
:1049E000DA7097F84C30153387F84C307B6ADB78F7
:1049F000002B8DD100E1FB6B0233FB61002387F8B4
:104A000048300CE024080020C425010800260108D5
:104A10003826010897F84830013387F8483097F86E
:104A20004830002B0BD197F848307B4A1B011344C8
:104A300002331A88FB691B889BB29A42EAD197F825
:104A40004830002B40F0DA80FB69DB789B08FB766E
:104A5000002387F84A30FB699B78012B40F0CE8019
:104A6000002387F8493054E097F84A30FA69134434
:104A70001B79194697F84A30FA6913440433013315
:104A80001B781B029BB20B433B8397F84A300233DF
:104A9000FA6913441B79194697F84A300233FA69C8
:104AA0001344043301331B781B029BB20B43FB827C
:104AB000FB8A42F60212934221D197F84830564AB7
:104AC0001B01134402331B88194654480AF0DEFECA
:104AD00097F84830504A1B0113441B780A2B0ED11B
:104AE00097F848304C4A1B0113440E333A8B1A8016
:104AF00097F84830484A1B0113440B221A7097F864
:104B00004A30043387F84A3097F84930013387F840
:104B1000493097F84920FB7E9A42A5D36EE0FB6BA3
:104B200002337B63002387F8473004E097F847306F
:104B3000013387F8473097F84730002B0BD197F8AF
:104B40004730354A1B01134402331A887B6B1B889C
:104B50009BB29A42EAD197F84730002B50D17B6B39
:104B60005B889AB297F847302B491B010B440C33F2
:104B70001B889A4244D17B6B1B79022B40D10223C4
:104B80003B727B6B1B793B747B6B0533FB6007F1DE
:104B90000803184600F046F832E0FB6B0233BB63B3
:104BA0001F480AF0E3FE0A200AF082FE002387F87D
:104BB000463004E097F84630013387F8463097F8DE
:104BC0004630002B0BD197F84630134A1B01134493
:104BD00002331A88BB6B1B889BB29A42EAD197F8C2
:104BE0004630002B0ED1002104200AF00FF809E016
:104BF00000BF0AE000BF08E000BF06E000BF04E01D
:104C000000BF02E000BF00E000BF97F84530184643
:104C10005037BD4680BD00BF240800207C26010817
:104C2000C426010880B582B000AF78607B681B782D
:104C3000022B27D17B685B681A78154B5A70144B8E
:104C40005B78012B1CD17B685B685A78104B9A709B
:104C50000F4B9B78002B09D1002000F0DFFC0D48A2
:104C60000AF014FE0C480AF011FE0AE00B480AF0A4
:104C70000DFE09480AF00AFE002000F0B5FC00E035
:104C800000BF00E000BF00BF0837BD4680BD00BFC9
:104C900034080020F42601083427010838270108C9
:104CA00080B400AF034B1B781846BD465DF8047B0B
:104CB000704700BF2408002080B584B000AF0346D1
:104CC0003A60FB800B467B719223FB730023BB731E
:104CD0001BE0FB884FF64162934212D1BB7B124A24
:104CE0001B01134402331888BB7B0F4A1B0113447A
:104CF000083319883B68022207F0CBFD0346FB739B
:104D000000E000BFBB7B0133BB73BB7B002B06D134
:104D1000BB7B054A1B0113441B78002BD9D1FB7BBD
:104D200018461037BD4680BD2408002080B582B0EB
:104D300000AF01233B710A4B1B787B713B7919460D
:104D40007B791A4607480AF0A1FD3B1D1A4600214F
:104D50004FF64160FFF7B0FF00BF0837BD4680BD8A
:104D6000740700207827010880B500AF0C480AF0CE
:104D70008DFD0C480AF08AFD0B4B1B79002B03D1EB
:104D8000094B01221A7102E0074B00221A71074AEF
:104D900000214FF64160FFF78FFF00BF80BD00BFCD
:104DA000A82701083427010834080020370800200C
:104DB00080B582B000AF0123BB8000237B8000233D
:104DC000FB71A5E0FB795A4A1B0113441B78073B92
:104DD000052B00F2998001A252F823F0F54D00084E
:104DE000FD4D00082F4E0008654E00089B4E000840
:104DF000D54E00084F480AF0B9FD86E04E480AF04B
:104E0000B5FDFB794A4A1B01134402331888FB792C
:104E1000474A1B01134404331988FB79444A1B0198
:104E2000134406331B881A4607F092FB6DE0434893
:104E30000AF09CFDFB793E4A1B011344023318889B
:104E4000FB793B4A1B01134408331988FB79384A24
:104E50001B01134408331B8802339BB21A4607F028
:104E6000F8FB52E036480AF081FDFB79304A1B011D
:104E7000134402331888FB792D4A1B0113440C3369
:104E80001988FB792A4A1B0113440C331B8802330F
:104E90009BB21A4607F0DDFB37E02A480AF066FDB0
:104EA000FB79234A1B01134402331888FB79204AFB
:104EB0001B0113440E3319883B1D022207F04AFCE4
:104EC000FB791B4A1B01134406221A70022000F0D2
:104ED000A5FB1AE01C480AF049FDFB79144A1B01A6
:104EE000134402331888FB79114A1B0113440E3313
:104EF0001988BB1C022207F02DFCFB790C4A1B0110
:104F0000134406221A7000E000BFFB790133FB71E5
:104F1000FB79002B08D1FB79054A1B0113441B7850
:104F2000002B7FF44FAF00BF00BF0837BD4680BDE8
:104F300024080020E8270108002801082828010883
:104F400064280108A8280108CC28010880B400AF13
:104F5000054BDB68044A43F40043D36000BFBD4601
:104F60005DF8047B704700BF0004005880B483B034
:104F700000AF7860064BD3F8D42005497B68134313
:104F8000C1F8D43000BF0C37BD465DF8047B7047D4
:104F90000008005880B483B000AF7860054B1A6AEF
:104FA00004497B6813430B6200BF0C37BD465DF8B4
:104FB000047B70470008005880B485B000AF78606B
:104FC0004FF0B0431A6D4FF0B0417B6813430B654F
:104FD0004FF0B0431A6D7B681340FB60FB6800BF65
:104FE0001437BD465DF8047B704780B485B000AFD0
:104FF00078604FF0B043D3F850214FF0B0417B6858
:105000001343C1F850314FF0B043D3F850217B68BF
:105010001340FB60FB6800BF1437BD465DF8047B9E
:10502000704780B483B000AF78607B681B6843F43E
:1050300080327B681A6000BF0C37BD465DF8047B88
:10504000704780B483B000AF78607B681B6843F022
:1050500001027B681A6000BF0C37BD465DF8047B17
:10506000704780B483B000AF786039607B685A685D
:105070003B681B04DB431A407B685A6000BF0C3757
:10508000BD465DF8047B704780B483B000AF7860A4
:1050900039607B685A683B681B041A437B685A6016
:1050A00000BF0C37BD465DF8047B704780B483B009
:1050B00000AF786039607B685A683B68DB431A4010
:1050C0007B685A6000BF0C37BD465DF8047B7047B3
:1050D00080B483B000AF786039607B683A689A60CA
:1050E00000BF0C37BD465DF8047B704780B483B0C9
:1050F00000AF786039603B681A047B689A6000BF33
:105100000C37BD465DF8047B704780B483B000AFB8
:10511000786039607B68DA683B6813403A689A4285
:1051200001D1012300E0002318460C37BD465DF88D
:10513000047B704780B483B000AF786039607B68CF
:10514000DA693B6813403A689A4201D1012300E0D2
:10515000002318460C37BD465DF8047B70470000FD
:1051600080B500AF02211848FFF7E4FF0346002B8B
:1051700008D0154B5B6803F00203002B02D100F04E
:1051800025F91EE001211048FFF7D4FF0346002B4C
:1051900008D00D4B5B6803F00103002B02D100F037
:1051A00099F80EE008210848FFF7C4FF0346002BDA
:1051B00008D0054B5B6803F00803002B02D100F018
:1051C0007DF900BF00BF80BD000C005880B500AF66
:1051D00002211848FFF799FF0346002B08D1154B11
:1051E0005B6803F40033002B02D100F0D3F81EE01B
:1051F00008211048FFF789FF0346002B08D10D4B0B
:105200005B6803F40023002B02D100F019F90EE0D3
:1052100020210848FFF779FF0346002B08D1054BF2
:105220005B6803F40013002B02D100F05FF800BFAD
:1052300000BF80BD000C005880B500AF4FF4801057
:10524000FFF7D3FE4FF40070FFF7A4FE4FF4007099
:10525000FFF78CFE40BF20BFFFF778FE00BF80BD88
:1052600080B500AF4FF48010FFF7A6FE0648FFF7A9
:10527000E8FE0548FFF7D5FE2C2000F0C2FC2D20EB
:1052800000F0BFFC00BF80BD000C005880B584B0AA
:1052900000AFEFF310837B607B68FB6072B600BFEA
:1052A00001210648FFF702FFFB68BB60BB6883F380
:1052B000108800BF00BF1037BD4680BD000C0058ED
:1052C00080B500AF01210248FFF710FF00BF80BD8D
:1052D000000C005880B500AF09F0EEF8012102483B
:1052E000FFF7F6FE00BF80BD000C005880B584B00B
:1052F00000AFEFF310837B607B68FB6072B600BF8A
:1053000020210748FFF7C0FEFB68BB60BB6883F342
:10531000108800BF09F000F900BF1037BD4680BDFE
:10532000000C005880B584B000AFEFF310837B60B1
:105330007B68FB6072B600BF02210648FFF7B6FE2D
:10534000FB68BB60BB6883F3108800BF00BF1037E9
:10535000BD4680BD000C005880B584B000AF02216E
:105360000B48FFF7C3FEEFF310837B607B68FB60A5
:1053700072B600BF02210648FFF773FEFB68BB60F0
:10538000BB6883F3108800BF00BF1037BD4680BDE7
:10539000000C005880B584B000AFEFF310837B6041
:1053A0007B68FB6072B600BF02210748FFF76CFE06
:1053B000FB68BB60BB6883F3108800BF09F000F98D
:1053C00000BF1037BD4680BD000C005880B500AF4F
:1053D00009F00CF902210248FFF77AFE00BF80BDF8
:1053E000000C005880B586B000AF786008211248E4
:1053F000FFF78BFE0346002B13D0104A7B68136027
:10540000EFF31083FB60FB687B6172B600BF08217D
:105410000948FFF726FE7B693B613B6983F31088EF
:1054200005E07B68984708210348FFF75FFE00BF4F
:105430001837BD4680BD00BF000C00583C08002056
:1054400080B584B000AFEFF310837B607B68FB60B6
:1054500072B600BF08210A48FFF716FEFB68BB6062
:10546000BB6883F3108800BF064B1B689847082170
:105470000348FFF73BFE00BF1037BD4680BD00BFAD
:10548000000C00583C08002080B584B000AFEFF35A
:1054900010837B607B68FB6072B600BF0821064802
:1054A000FFF704FEFB68BB60BB6883F3108800BF96
:1054B00000BF1037BD4680BD000C005880B500AF5E
:1054C00009F03CF908210248FFF702FE00BF80BD49
:1054D000000C0058D458C4500433C4188C42F9D37B
:1054E0007047036004308842FBD370470C48854600
:1054F00000F01EF90B480C490C4A0023FFF7EDFFA2
:105500000B480C490023FFF7EEFF0B480B49002323
:10551000FFF7E9FF0AF062FBFDF78EFCFEE70000F3
:105520000000032008000020FC010020DC2E010800
:105530004C020020C81A0020E4010320670A03205F
:10554000FEE780B485B000AF78604FF0B043DA6C0E
:105550004FF0B0417B681343CB644FF0B043DA6C3B
:105560007B681340FB60FB6800BF1437BD465DF8E5
:10557000047B704780B588B000AF0346FB7107F12C
:105580000C0300221A605A609A60DA601A610220E5
:10559000FFF7D7FFFB79124A32F81330FB60012383
:1055A0003B6100237B610223BB61FB790D4A52F80A
:1055B000233007F10C021146184600F0FBFEFB7980
:1055C000084A52F82300FB79054A32F813300022CA
:1055D000194601F05FF800BF2037BD4680BD00BF0F
:1055E000782A01080800002080B582B000AF034689
:1055F000FB71FB79074A52F82300FB79064A32F81F
:1056000013300122194601F045F800BF0837BD46A6
:1056100080BD00BF08000020782A010880B582B054
:1056200000AF0346FB71FB79074A52F82300FB7970
:10563000064A32F813300022194601F02BF800BF59
:105640000837BD4680BD00BF08000020782A010849
:1056500080B588B000AF03460A46FB711346BB71A4
:1056600007F10C0300221A605A609A60DA601A612E
:10567000FB79002B03D10420FFF763FF0CE0FB79DB
:10568000012B03D10820FFF75CFF05E0FB79022B1B
:1056900002D10820FFF755FFBB79002B17D1FB790A
:1056A000204A32F81330FB6000233B6101237B6109
:1056B0000223BB61FB791C4A52F8233007F10C022C
:1056C0001146184600F076FE0120FCF721FBBB795D
:1056D000012B23D1FB79134A32F81330FB600123ED
:1056E0007B614FF404133B61FB790F4A52F823307E
:1056F00007F10C021146184600F05CFEFB790B4ADC
:10570000D35C5BB200220F21184600F060FAFB79EF
:10571000064AD35C5BB2184600F073FA00BF20372C
:10572000BD4680BD802A010814000020882A010897
:1057300080B400AF264B00229A60254BD3F8883006
:10574000234A43F47003C2F888304FF0B0431B681B
:105750004FF0B04243F0010313604FF0B0434FF4F9
:10576000E0229A604FF0B0431A684FF0B041194BF5
:1057700013400B604FF0B043D3F894304FF0B04279
:1057800023F00503C2F894304FF0B043D3F89830BB
:105790004FF0B04223F00103C2F898304FF0B0430D
:1057A0000D4ADA604FF0B0430B4A1A614FF0B04334
:1057B0001B684FF0B04223F4802313604FF0B043D6
:1057C00000229A6100BFBD465DF8047B704700BFB0
:1057D00000ED00E0FBFEF6FA0010042280B400AFFA
:1057E000054B5B68044A43F00103536000BFBD46AC
:1057F0005DF8047B704700BF002004E080B400AF78
:10580000054B5B68044A43F00203536000BFBD468A
:105810005DF8047B704700BF002004E080B582B0D3
:1058200000AF0023FB710C4B1B680B4A43F48073E1
:105830001360032000F0C0F9002000F00FF80346C9
:10584000002B02D00123FB7101E0FDF7F4FDFB7991
:1058500018460837BD4680BD0040005880B584B06A
:1058600000AF78600023FB73174B1B78002B24D00C
:1058700002F0C2FE0246144B1B7819464FF47A73AD
:10588000B3FBF1F3B2FBF3F3184600F0D6F903468D
:10589000002B0FD17B680F2B09D8002279684FF0BD
:1058A000FF3000F094F9094A7B68136007E0012398
:1058B000FB7304E00123FB7301E00123FB73FB7B1B
:1058C00018461037BD4680BD280000202400002067
:1058D00080B400AF064B1B781A46064B1B68134476
:1058E000044A136000BFBD465DF8047B704700BFEB
:1058F000280000204008002080B400AF034B1B6844
:105900001846BD465DF8047B704700BF4008002084
:1059100080B400AF034B1B681846BD465DF8047B9E
:10592000704700BF2400002080B400AF034B1B78F9
:105930001846BD465DF8047B704700BF2800002074
:1059400080B500AFFFF74AFF00BF80BD80B500AF54
:10595000FFF754FF00BF80BD80B485B000AF786012
:105960007B6803F00703FB600C4BDB68BB60BA6825
:105970004FF6FF031340BB60FB681A02BB6813437A
:1059800043F0BF6343F40033BB60044ABB68D36099
:1059900000BF1437BD465DF8047B704700ED00E0A2
:1059A00080B400AF044BDB681B0A03F00703184602
:1059B000BD465DF8047B704700ED00E080B483B025
:1059C00000AF0346FB7197F90730002B0BDBFB7927
:1059D00003F01F02074997F907305B09012000FA1D
:1059E00002F241F8232000BF0C37BD465DF8047B6E
:1059F000704700BF00E100E080B483B000AF034611
:105A0000FB7197F90730002B12DBFB7903F01F02C3
:105A10000A4997F907305B09012000FA02F22033A6
:105A200041F82320BFF34F8F00BFBFF36F8F00BF3C
:105A300000BF0C37BD465DF8047B704700E100E015
:105A400080B483B000AF0346FB7197F90730002B99
:105A50000CDBFB7903F01F02074997F907305B095C
:105A6000012000FA02F2403341F8232000BF0C3736
:105A7000BD465DF8047B704700E100E080B483B070
:105A800000AF0346FB7197F90730002B0CDBFB7965
:105A900003F01F02074997F907305B09012000FA5C
:105AA00002F2603341F8232000BF0C37BD465DF899
:105AB000047B704700E100E080B483B000AF034690
:105AC0003960FB7197F90730002B0ADB3B68DAB2CB
:105AD0000C4997F907301201D2B20B4483F8002326
